:020000040800F2
:1000000080060020650100088B0100088D010008B2
:1000100000000000000000000000000000000000E0
:100020000000000000000000000000008F01000838
:10003000000000000000000091010008930100088A
:100040009501000895010008950100089501000838
:100050009501000895010008950100089501000828
:100060009501000895010008950100089501000818
:100070009501000895010008950100089507000802
:100080009501000800000000000000009501000834
:1000900000000000950100087107000895010008A4
:1000A0000000000095010008950100089501000876
:1000B0009501000800000000950100089501000866
:1000C00000F002F800F03EF80CA030C80838241800
:1000D0002D18A246671EAB4654465D46AC4201D180
:1000E00000F030F87E460F3E0FCCB6460126334274
:1000F00000D0FB1AA246AB46334318473812000023
:1001000058120000103A02D378C878C1FAD85207C2
:1001100001D330C830C101D504680C6070470000BD
:100120000023002400250026103A01D378C1FBD813
:10013000520700D330C100D50B6070471FB51FBDFB
:1001400010B510BD00F0F8F81146FFF7F7FF00F00A
:1001500049FC00F010F903B4FFF7F2FF03BC00F014
:1001600017F900000F4880F308880F480168090E4E
:100170000E4A914205D10E480E4901600E480F49C2
:1001800001600F4880470F480047FEE7FEE7FEE7A3
:10019000FEE7FEE7FEE700000B480C490C4A0D4B5A
:1001A0007047000080060020040000001F000000CF
:1001B0001810024001000000000001400000000093
:1001C000FD060008C1000008800000208006002015
:1001D0008002002080020020002203098B422CD3E1
:1001E000030A8B4211D300239C464EE003460B4387
:1001F0003CD4002243088B4231D303098B421CD3E9
:10020000030A8B4201D394463FE0C3098B4201D3DA
:10021000CB01C01A524183098B4201D38B01C01A12
:10022000524143098B4201D34B01C01A5241030989
:100230008B4201D30B01C01A5241C3088B4201D338
:10024000CB00C01A524183088B4201D38B00C01AE5
:10025000524143088B4201D34B00C01A5241411A0C
:1002600000D201465241104670475DE0CA0F00D0EF
:100270004942031000D34042534000229C460309E8
:100280008B422DD3030A8B4212D3FC22890112BA6E
:10029000030A8B420CD3890192118B4208D3890146
:1002A00092118B4204D389013AD0921100E089095E
:1002B000C3098B4201D3CB01C01A524183098B423F
:1002C00001D38B01C01A524143098B4201D34B0128
:1002D000C01A524103098B4201D30B01C01A52418B
:1002E000C3088B4201D3CB00C01A524183088B4212
:1002F00001D38B00C01A5241D9D243088B4201D39B
:100300004B00C01A5241411A00D201466346524185
:100310005B10104601D34042002B00D54942704784
:1003200063465B1000D3404201B50020C046C04682
:1003300002BD704770477047754600F025F8AE461D
:10034000050069465346C008C000854618B020B570
:10035000FFF722FF60BC00274908B6460026C0C54B
:10036000C0C5C0C5C0C5C0C5C0C5C0C5C0C5403D6D
:1003700049008D46704710B50446C046C046204629
:10038000FFF7E9FE10BD0000004870471C00002088
:1003900001491820ABBEFEE72600020070477CB57D
:1003A00004460D46164606226946322000F0E8FB58
:1003B00068464078010268460078014308B2208010
:1003C0006846C078010268468078014308B22880F8
:1003D00068464079000269460979084300B23080D6
:1003E0007CBD00B5002000F071FCE52801D00020A4
:1003F00000BD002000F00FF8282000F005F80120D3
:1004000000F009F80120F3E710B504462146312039
:1004100000F0FAFC10BD30B50446002C0AD02D20A7
:1004200000F054FC08210843054629462D2000F021
:10043000EBFC09E02D2000F049FC0821884305462B
:1004400029462D2000F0E0FC30BD00B50346802099
:1004500000F044F8184600F041F800BD00BF0D4818
:1004600080690121C90308400028F8D10948406883
:100470000949084007494860084640680749084359
:100480000449486000BF03488069402108400028B3
:10049000F9D17047005400400078FFFF7820FF003A
:1004A00000BF0D488069C007C00F0028F9D00A4876
:1004B00040680121890308430749486000BF064896
:1004C0008069202108400028F9D00348C06908430A
:1004D0000149C861704700000054004000BF08494E
:1004E0008969C907C90F0029F9D00549886200BF89
:1004F00003498969402211400029F9D17047000061
:100500000054004070B506460C46FFF7A7FF402098
:10051000FFF7E4FF00231DE030462038810040183B
:10052000C0180F490D5C002C04D0E943C8B2FFF796
:10053000D5FF02E02846FFF7D1FF042B08D1002C9D
:1005400003D0FF20FFF7CAFF02E00020FFF7C6FF3D
:10055000581CC3B2052BDFDBFFF7A2FF70BD000004
:10056000D20E000830B5002417E0FFF777FF2020F7
:10057000FFF76BFF0020FFF768FF4020FFF7AEFF9B
:10058000002504E00020FFF7A9FF681CC5B2802DFC
:10059000F8DBFFF785FF601CC4B2082CE5DB30BD3B
:1005A00030B504460D46FFF759FF0F2C06DD21112B
:1005B000102211430846FFF748FF02E01020FFF722
:1005C00044FF2007000FFFF740FFB02129430846F2
:1005D000FFF73BFFFFF764FF30BD000010B5FFF7EA
:1005E0003DFFAE20FFF731FF002405E00549085D1F
:1005F000FFF72BFF601CC4B2122CF7D9FFF750FF96
:1006000010BD0000C00E0008FCB504460E460125D2
:10061000002700BF022C10DB2046E10F091849100B
:100620004900611ACFB238463030694648552046F5
:10063000E10F0918C9050C0E04E020463030694668
:1006400048550024681CC5B2092DE3DB681EC5B2FD
:1006500000BF6946485D3146FFF754FF681EC5B2CA
:10066000002DF6D1FCBDF3B585B006460124002768
:1006700000200190002E01DB354602E0754201208A
:10068000019000BF0A2D0ED30A212846FFF7A4FDD2
:100690000F463846303002A908550A212846FFF790
:1006A0009BFD054604E02846303002A90855002588
:1006B000601CC4B2002DE5D10198002803D02D2084
:1006C00002A9085501E0601EC4B200BF02A9085D7E
:1006D0000699FFF717FF601EC4B2002CF6D107B0D1
:1006E000F0BD30B504460D4604E020782946FFF7FA
:1006F00009FF641C20780028F7D130BD1948006834
:100700000121084317490860084640681649084017
:1007100014494860084600681449084011490860B7
:10072000084600680121890488430E49086008468C
:1007300040683F21090488430A4948600846C06A66
:1007400000090001C8620846006BFF21D4318843CC
:10075000044908630846406B400840004863002095
:1007600088607047001002400CB8FF08FFFFF6FEDB
:1007700000B507480069C007C00F002807D000F087
:100780000DF803480069400840000149086100BDB8
:100790000048014001208007006970471048008828
:1007A000002804D00E480088401E0D4908800D48DE
:1007B000008800280ED1FF20F5300A4908800A4839
:1007C0004069012148400849486108480088401CA8
:1007D0000649088003480088401E02490880704787
:1007E000040000200600002000040048080000204B
:1007F00010B5002819DB1A4A03231B02D2188308FC
:100800009B00D2588307DC0EFF23A3409A438B073B
:100810001B0E8407E40EA3401A43114B0324240249
:100820001B198408A4001A5118E00E4A03071B0F75
:10083000083B9B089B00D2588307DC0EFF23A34094
:100840009A438B071B0E8407E40EA3401A43054B03
:100850000407240F083CA408A4001A5110BD00008E
:1008600000E100E01CED00E00349088000BF024900
:1008700009880029FBD170470400002010B55248B8
:1008800080690121890408434F4988614F485049D4
:1008900088620120C86208460068912108434C49DB
:1008A00008600846C068012108434949C86016200D
:1008B000002809DB00BF00BFC206D20E0121914013
:1008C000444A116000BF00BF00BF05211620FFF79A
:1008D0008FFF3D4840690121890408433A49486136
:1008E0003D480068012108433B490860364840699B
:1008F0000903084334494861384800680A2108431D
:1009000036490860084680680F21084333498860EB
:100910000846406803210843304948600846006A99
:10092000112108432D4908622748C0690121490562
:1009300008432549C8612A480069294908610846D1
:100940000069092108432649086108460069032116
:100950000902084322490861084600690121090487
:1009600008431F4908610846006903210905084337
:100970001B490861084640680321C9028843184999
:1009800048600846006801210843154908600E4880
:1009900040690121490408430B4948610920C00608
:1009A0000068042108430921C90608600846006858
:1009B0008008800008600846C068022108430921B9
:1009C000C906C86010BD0000001002403F1F0000B3
:1009D0000048014000E100E0000400480014004825
:1009E00000540040FFF74AFFC820FFF73DFFFFF724
:1009F000F5FDFFF7B7FD00210520FFF7D1FD01212F
:100A000046A0FFF76EFEFFF7ECFC86E04748008843
:100A10000028FAD0002045490880454A4549464803
:100A2000FFF7BDFC44490020085E44490880414965
:100A30000020085E424908803D490020085E414987
:100A4000088002210120FFF7ABFD00213EA0FFF747
:100A500048FE0021394A505EFFF705FE00213BA009
:100A6000FFF73FFE03210120FFF79AFD002139A087
:100A7000FFF737FE0021324A505EFFF7F4FD0021F8
:100A800032A0FFF72EFE04210120FFF789FD00218F
:100A900031A0FFF726FE00212A4A505EFFF7E3FD52
:100AA00000212AA0FFF71DFE05210120FFF778FD98
:100AB00000212AA0FFF715FE2C2000F007F90446BC
:100AC0000021FFF7A1FD002126A0FFF70AFE062165
:100AD0000120FFF765FD002123A0FFF702FE2D2076
:100AE00000F0F4F804460021FFF78EFD00211DA060
:100AF000FFF7F7FD07210120FFF752FD00211DA0A0
:100B0000FFF7EFFD312000F0E1F804460021FFF788
:100B10007BFD002113A0FFF7E4FD77E72054455348
:100B200054204144584C3334352000000800002044
:100B300012000020100000200E00002014000020F1
:100B400016000020180000206158200020202020DE
:100B50000000000061592000615A200042575F5296
:100B60006174652020200000506F775F43544C2053
:100B7000202000004461746120466F726D200000E7
:100B800030B500BF4C4B9B690124E4032340002B8C
:100B9000F8D1494B5B68494C2340474C636023467E
:100BA0005B68474C2343444C636000BF424B9B69E6
:100BB00040242340002BF9D100BF3F4B9B69DB074A
:100BC000DB0F002BF9D03C4B986200BF3A4B9B697E
:100BD00040242340002BF9D100BF374B9B69DB0732
:100BE000DB0F002BF9D0344B5B680124A4032343B3
:100BF000314C636000BF304B9B6920242340002BA5
:100C0000F9D02D4BDB6923432B4CE36100BF2A4B0A
:100C10009B690124E4032340002BF8D1264B5B6839
:100C2000284C2340244C636023465B6824152343EF
:100C3000214C636023465C681304234D2B431C4303
:100C40001D4B5C6000BF1C4B9B6940242340002B64
:100C5000F9D10AE000BF184B9B6904242340002B04
:100C6000F9D0154B5B6A0B70491C1346541EE2B257
:100C7000002BEFDC00BF104B9B69DB07DB0F002B69
:100C8000F9D00D4B5B680124A40323430A4C636035
:100C900000BF094B9B6920242340002BF9D0064B51
:100CA000DB692343044CE36123465B682124A402EF
:100CB000A343014C636030BD0054004000F800FFC6
:100CC000A620FF0000FC00FFA6200000014600BF98
:100CD000484A92690123DB031A40002AF8D1454AA9
:100CE0005268454B1A40434B5A601A465268434B70
:100CF0001A43404B5A6000BF3E4A926940231A4053
:100D0000002AF9D100BF3B4A9269D207D20F002ACC
:100D1000F9D0384A916200BF364A926940231A409E
:100D2000002AF9D100BF334A9269D207D20F002AB4
:100D3000F9D0304A526801239B031A432D4B5A6065
:100D400000BF2C4A926920231A40002AF9D0294A70
:100D5000D2691A43274BDA6100BF264A9269012300
:100D6000DB031A40002AF8D1224A5268244B1A4069
:100D7000204B5A601A4652681B151A431D4B5A6085
:100D80001A4652681F4B1A431A4B5A6000BF194A41
:100D9000926940231A40002AF9D100BF154A92698E
:100DA00004231A40002AF9D0124A526AD0B200BF76
:100DB000104A9269D207D20F002AF9D00D4A526820
:100DC00001239B031A430B4B5A6000BF094A9269E7
:100DD00020231A40002AF9D0064AD2691A43054B4B
:100DE000DA611A46526821239B029A43014B5A60EA
:100DF000704700000054004000F800FFA62080006B
:100E000000FC00FFA620010000BF2A4A92690123CE
:100E1000DB031A40002AF8D1264A5268264B1A40B2
:100E2000244B5A601A465268244B1A43214B5A608D
:100E300000BF204A926940231A40002AF9D100BF1E
:100E40001C4A9269D207D20F002AF9D0194A90623F
:100E500000BF184A926940231A40002AF9D100BF06
:100E6000144A9269D207D20F002AF9D0114A91622E
:100E700000BF104A926940231A40002AF9D100BFEE
:100E80000C4A9269D207D20F002AF9D0094A526857
:100E900001239B031A43074B5A6000BF054A92691E
:100EA00020231A40002AF9D0024AD2691A43014B82
:100EB000DA6170470054004000F800FFA62080006F
:100EC000A83FD30040A1C8DA12817FA4A6D5808DA7
:100ED00014AF000000000000002F00000007000712
:100EE00000147F147F14242A7F2A12C4C8102646B7
:100EF00036495522500005030000001C2241000025
:100F000041221C0014083E081408083E080800008E
:100F10005030001010101010006060000020100809
:100F200004023E5149453E00427F40004261514922
:100F3000462141454B311814127F1027454545394C
:100F40003C4A494930017109050336494949360689
:100F50004949291E003636000000563600000814A4
:100F600022410014141414140041221408020151E7
:100F70000906324959513E7E1111117E7F49494976
:100F8000363E414141227F4141221C7F494949412E
:100F90007F090909013E4149497A7F0808087F0015
:100FA000417F41002040413F017F081422417F40A2
:100FB0004040407F020C027F7F0408107F3E414189
:100FC000413E7F090909063E4151215E7F091929E9
:100FD00046464949493101017F01013F4040403FB8
:100FE0001F2040201F3F4038403F63140814630710
:100FF000087008076151494543007F414100552A67
:10100000552A550041417F0004020102044040403E
:101010004040000102040020545454787F48444466
:10102000383844444420384444487F385454541891
:10103000087E0901020C5252523E7F0804047800D7
:10104000447D40002040443D007F10284400004182
:101050007F40007C041804787C08040478384444F9
:1010600044387C14141408081414187C7C080404F4
:10107000084854545420043F4440203C4040207CC5
:101080001C2040201C3C4030403C44281028440C8C
:101090005050503C4464544C440008364100000019
:1010A0007F0000004136080004020408040000002C
:1010B0000000000000000000000000000000000030
:1010C0000000000000000000000000000000000020
:1010D0000000000000000000000000000000000010
:1010E0000000000000000000000000000000000000
:1010F00000000000000000000000000000000000F0
:1011000000000000000000000000000000000000DF
:1011100000000000000000000000000000000000CF
:1011200000000000000000000000000000000000BF
:1011300000000000000000000000000000000000AF
:10114000000000000000000000000000000000009F
:10115000000000000000000000000000000000008F
:10116000000000000000000000000000000000007F
:101170000000360000000000000000000000000039
:10118000000000003E494949220000000000000024
:101190000000000000000000000000000044457C4A
:1011A00045440000000000000000000000417F41B5
:1011B0000000447D4000000000000000000000002E
:1011C000000000000000000000000000000000001F
:1011D0000000000038544428000000000000000017
:1011E000000000000000000000000000004A487AF3
:1011F00040407E1111117E7F494949317F4949495B
:10120000367F01010103603E21217F7F4949494129
:1012100063147F146322494949367F1008047F7F95
:101220001009047F7F081422417C0201017F7F02A4
:101230000C027F7F0808087F3E4141413E7F01014B
:10124000017F7F090909063E4141412201017F01D9
:1012500001074848483F1C227F221C63140814637E
:101260003F20203F60070808087F7F407F407F3F86
:10127000203F207F017F4848307F4848307F7F48AB
:10128000484830224949493E7F083E413E46291997
:10129000097F205454547878545454207C54545426
:1012A000287C0404040060382438603854545418EE
:1012B0006C107C106C28445454283C4040207C3CEA
:1012C0004042207C7C10102844601008047C7C087C
:1012D00010087C7C1010107C38444444387C040492
:1012E000047C7C14141408384444442004047C0412
:1012F000040C5050503C18247C24184428102844D6
:101300003C20203C600C1010107C7C407C407C3CDD
:10131000203C207C047C4848307C4830007C7C4861
:1013200048483028445454387C10384438582424D1
:10133000247C000054130008000000201C00000062
:1013400004010008701300081C000020640600005F
:101350002001000800000000000000000000000064
:10136000000000000000000000000000000000007D
:040000050800016589
:00000001FF
